:100000000C9462000C948A000C948A000C948A0070
:100010000C948A000C948A000C948A000C948A0038
:100020000C948A000C948A000C948A000C948A0028
:100030000C948A000C948A000C948A000C948A0018
:100040000C94B9040C948A000C94EC020C941E03DA
:100050000C948A000C948A000C948A000C948A00F8
:100060000C948A000C948A00000000080002010031
:100070000003040700000000000000000102040863
:100080001020408001020408102001020408102002
:10009000040404040404040402020202020203032E
:1000A00003030303000000002300260029000000D2
:1000B0000000250028002B0000000000240027007D
:1000C0002A004E0311241FBECFEFD8E0DEBFCDBF04
:1000D00011E0A0E0B1E0E0EDFAE002C005900D9281
:1000E000A635B107D9F722E0A6E5B1E001C01D921F
:1000F000A330B207E1F710E0C4ECD0E004C02297CF
:10010000FE010E946205C23CD107C9F70E94AA0401
:100110000C9466050C940000CF93DF93C4E0D1E00B
:1001200060E088810E94450160E0809102010E94A8
:10013000450188810E947E0190935A018093590164
:1001400026E040E855E260E070E08DE591E0DF9167
:10015000CF910C948A02809104010E947E019093B9
:100160005801809357012091590130915A0182170B
:10017000930709F458C0809102010E947E016091AA
:1001800057017091580120915B0130915C014091C1
:100190000001509101018617970791F02417350748
:1001A0003CF42F5F3F4F30935C0120935B0104C010
:1001B00010925C0110925B0181E08093560110C0A7
:1001C000241735073CF42150310930935C0120930A
:1001D0005B0104C010925C0110925B011092560109
:1001E00066E071E08DE591E00E94CF0380915601B9
:1001F000882319F067E171E002C060E171E08DE5EC
:1002000091E00E94DC0361E271E08DE591E00E94E3
:10021000CF0360915B0170915C014AE050E08DE595
:1002200091E00E9491048091570190915801909320
:100230005A01809359010895833081F028F4813068
:1002400099F08230A1F008958730A9F08830B9F094
:100250008430D1F4809180008F7D03C08091800034
:100260008F7780938000089584B58F7702C084B51E
:100270008F7D84BD08958091B0008F7703C08091F9
:10028000B0008F7D8093B0000895CF93DF9390E00E
:10029000FC01E458FF4F2491FC01E057FF4F84918B
:1002A000882349F190E0880F991FFC01E854FF4F23
:1002B000A591B49182559F4FFC01C591D4919FB7F0
:1002C000611108C0F8948C91209582238C938881C9
:1002D00082230AC0623051F4F8948C91322F309509
:1002E00083238C938881822B888304C0F8948C911B
:1002F000822B8C939FBFDF91CF910895CF93DF9393
:10030000282F30E0F901E859FF4F8491F901E458B2
:10031000FF4FD491F901E057FF4FC491CC2391F0E6
:1003200081110E941C01EC2FF0E0EE0FFF1FEC5535
:10033000FF4FA591B4912C912D2381E090E021F401
:1003400080E002C080E090E0DF91CF910895FC0151
:10035000818D228D90E0805C9F4F821B91098F736D
:1003600099270895FC01918D828D981731F0828D27
:10037000E80FF11D858D90E008958FEF9FEF0895B0
:10038000FC01918D828D981761F0828DDF01A80F9D
:10039000B11D5D968C91928D9F5F9F73928F90E0BF
:1003A00008958FEF9FEF089584E493E0892B49F03F
:1003B00080E090E0892B29F00E94440381110C9485
:1003C00000000895FC01848DDF01A80FB11DA35A20
:1003D000BF4F2C91848D90E001968F739927848F65
:1003E000A689B7892C93A089B1898C9180648C935C
:1003F000938D848D981306C00288F389E02D808147
:100400008F7D80830895CF93DF93EC01888D8823BF
:10041000C9F0EA89FB89808185FD05C0A889B98971
:100420008C9186FD0FC00FB607FCF5CF808185FF4C
:10043000F2CFA889B9898C9185FFEDCFCE010E94BA
:10044000E201E7CFDF91CF910895CF92DF92FF9243
:100450000F931F93CF93DF931F92CDB7DEB76C013D
:1004600081E0D60158968C9358975B969C915B9748
:100470005C968C915C97981307C05096ED91FC9117
:100480005197808185FD2EC0F601038D10E00F5F2E
:100490001F4F0F731127F02EF601848DF81211C033
:1004A0000FB607FCF9CFD6015096ED91FC9151970C
:1004B000808185FFF1CFC60169830E94E2016981D5
:1004C000EBCF838DE80FF11DE35AFF4F6083D60118
:1004D0005B960C935B975296ED91FC9153978081BC
:1004E00080620CC0D6015696ED91FC9157976083BF
:1004F0005096ED91FC91519780818064808381E0DA
:1005000090E00F90DF91CF911F910F91FF90DF90BE
:10051000CF900895BF92CF92DF92EF92FF92CF9348
:10052000DF93EC016A017B01B22EE889F98982E050
:100530008083411581EE580761057105A1F060E0E7
:1005400079E08DE390E0A70196010E943E052150DD
:100550003109410951095695479537952795211538
:1005600080E1380798F0E889F989108260E874E83A
:100570008EE190E0A70196010E943E0521503109CD
:10058000410951095695479537952795EC85FD8585
:100590003083EE85FF852083188EEC89FD89B0823B
:1005A000EA89FB89808180618083EA89FB89808177
:1005B00088608083EA89FB89808180688083EA89FA
:1005C000FB8980818F7D8083DF91CF91FF90EF90B9
:1005D000DF90CF90BF9008951F920F920FB60F92A9
:1005E00011242F938F939F93EF93FF93E0916D01CD
:1005F000F0916E018081E0917301F091740182FDB0
:1006000012C09081809176018F5F8F732091770166
:10061000821751F0E0917601F0E0E35AFE4F958F9A
:100620008093760101C08081FF91EF919F918F911E
:100630002F910F900FBE0F901F9018951F920F9241
:100640000FB60F9211242F933F934F935F936F93A5
:100650007F938F939F93AF93BF93EF93FF938DE51A
:1006600091E00E94E201FF91EF91BF91AF919F91C4
:100670008F917F916F915F914F913F912F910F904B
:100680000FBE0F901F9018958DE591E00E94A70175
:1006900021E0892B09F420E0822F08951092600157
:1006A00010925F0188EE93E0A0E0B0E080936101DA
:1006B00090936201A0936301B093640188E391E099
:1006C00090935E0180935D0185EC90E090936A01C8
:1006D0008093690184EC90E090936C0180936B01AE
:1006E00080EC90E090936E0180936D0181EC90E03E
:1006F0009093700180936F0182EC90E0909372016F
:100700008093710186EC90E0909374018093730163
:10071000109276011092770110927801109279016F
:100720000895CF92DF92EF92FF920F931F93CF9392
:10073000DF937C016A01EB0100E010E00C151D0560
:1007400071F06991D701ED91FC910190F081E02D5C
:10075000C7010995892B19F00F5F1F4FEFCFC80113
:10076000DF91CF911F910F91FF90EF90DF90CF908D
:1007700008956115710581F0DB010D900020E9F706
:10078000AD0141505109461B570BDC01ED91FC9125
:100790000280F381E02D099480E090E008950C94AC
:1007A000B903DC01ED91FC910190F081E02D0994F9
:1007B00064E471E00C94B9030F931F93CF93DF931C
:1007C000EC010E94B9038C01CE010E94D803800F76
:1007D000911FDF91CF911F910F9108958F929F925A
:1007E000AF92BF92CF92DF92EF92FF920F931F933F
:1007F000CF93DF93CDB7DEB7A1970FB6F894DEBFE6
:100800000FBECDBF7C01C42EE52FCB01D22E19A285
:1008100021E02D1510F02AE0D22E8E010F5D1F4F22
:100820008D2C912CA12CB12C6C2D7E2FA501940127
:100830000E943E058C2DD29E801911240150110971
:100840008A3014F4805D01C0895CF8018083211531
:1008500031054105510521F0C22EE32FCA01E4CF35
:10086000B801C7010E94B903A1960FB6F894DEBF84
:100870000FBECDBFDF91CF911F910F91FF90EF90F1
:10088000DF90CF90BF90AF909F908F900895CF92C0
:10089000DF92EF92FF920F931F93CF93DF93EC01C0
:1008A0006A017B012115310579F4E881F981019014
:1008B000F081E02D642FDF91CF911F910F91FF9078
:1008C000EF90DF90CF9009942A303105E9F477FF5B
:1008D0001AC06DE20E94D1038C0144275527BA014A
:1008E0004C195D096E097F092AE0CE010E94EE03D2
:1008F000800F911FDF91CF911F910F91FF90EF908B
:10090000DF90CF9008952AE0B701A601CE01DF91D4
:10091000CF911F910F91FF90EF90DF90CF900C94AB
:10092000EE030F931F93CF93DF93EC019A01AB017A
:10093000662757FD6095762F0E9447048C01CE01F3
:100940000E94D803800F911FDF91CF911F910F91CB
:10095000089508950E9403050E94A9040E948C0036
:10096000C4EDD1E00E94AB002097E1F30E94D401D6
:10097000F9CF1F920F920FB60F9211242F933F932E
:100980008F939F93AF93BF938091FB019091FC0154
:10099000A091FD01B091FE013091FA0123E0230FF7
:1009A0002D3720F40196A11DB11D05C026E8230FA7
:1009B0000296A11DB11D2093FA018093FB01909333
:1009C000FC01A093FD01B093FE018091FF01909185
:1009D0000002A0910102B09102020196A11DB11D79
:1009E0008093FF0190930002A0930102B093020252
:1009F000BF91AF919F918F913F912F910F900FBE1B
:100A00000F901F901895789484B5826084BD84B54A
:100A1000816084BD85B5826085BD85B5816085BDF9
:100A2000EEE6F0E0808181608083E1E8F0E0108212
:100A3000808182608083808181608083E0E8F0E053
:100A4000808181608083E1EBF0E08081846080833D
:100A5000E0EBF0E0808181608083EAE7F0E0808174
:100A600084608083808182608083808181608083D4
:100A70008081806880831092C1000895A1E21A2EBF
:100A8000AA1BBB1BFD010DC0AA1FBB1FEE1FFF1F32
:100A9000A217B307E407F50720F0A21BB30BE40B82
:100AA000F50B661F771F881F991F1A9469F76095C9
:100AB0007095809590959B01AC01BD01CF01089583
:100AC000EE0FFF1F0590F491E02D0994F894FFCFED
:100AD0000A0002000300526F74617465643A2000DA
:100AE000636F756E746572636C6F636B7769736542
:100AF00000456E636F64657220506F736974696F2F
:100B00006E3A20000000000025029103A701C001F9
:100B1000B20103020D0A006E616E00696E66006F1D
:060B20007666002E0000C5
:107E0000112484B714BE81FFF0D085E080938100F7
:107E100082E08093C00088E18093C10086E0809377
:107E2000C20080E18093C4008EE0C9D0259A86E02C
:107E300020E33CEF91E0309385002093840096BBD3
:107E4000B09BFECF1D9AA8958150A9F7CC24DD24C4
:107E500088248394B5E0AB2EA1E19A2EF3E0BF2EE7
:107E6000A2D0813461F49FD0082FAFD0023811F036
:107E7000013811F484E001C083E08DD089C08234E0
:107E800011F484E103C0853419F485E0A6D080C0E4
:107E9000853579F488D0E82EFF2485D0082F10E0AE
:107EA000102F00270E291F29000F111F8ED06801E7
:107EB0006FC0863521F484E090D080E0DECF843638
:107EC00009F040C070D06FD0082F6DD080E0C81688
:107ED00080E7D80618F4F601B7BEE895C0E0D1E017
:107EE00062D089930C17E1F7F0E0CF16F0E7DF06D8
:107EF00018F0F601B7BEE89568D007B600FCFDCFD4
:107F0000A601A0E0B1E02C9130E011968C91119780
:107F100090E0982F8827822B932B1296FA010C0160
:107F200087BEE89511244E5F5F4FF1E0A038BF0790
:107F300051F7F601A7BEE89507B600FCFDCF97BE46
:107F4000E89526C08437B1F42ED02DD0F82E2BD052
:107F50003CD0F601EF2C8F010F5F1F4F84911BD097
:107F6000EA94F801C1F70894C11CD11CFA94CF0C13
:107F7000D11C0EC0853739F428D08EE10CD085E9AC
:107F80000AD08FE07ACF813511F488E018D01DD067
:107F900080E101D065CF982F8091C00085FFFCCF94
:107FA0009093C60008958091C00087FFFCCF809118
:107FB000C00084FD01C0A8958091C6000895E0E648
:107FC000F0E098E1908380830895EDDF803219F02E
:107FD00088E0F5DFFFCF84E1DECF1F93182FE3DFCA
:107FE0001150E9F7F2DF1F91089580E0E8DFEE27F6
:047FF000FF270994CA
:027FFE00040479
:0400000300007E007B
:00000001FF
